{
  "contractName": "Auction",
  "abi": [
    {
      "anonymous": false,
      "inputs": [
        {
          "indexed": false,
          "internalType": "uint256",
          "name": "id",
          "type": "uint256"
        },
        {
          "indexed": false,
          "internalType": "uint256",
          "name": "initialSellPrice",
          "type": "uint256"
        },
        {
          "indexed": false,
          "internalType": "uint256",
          "name": "sellPrice",
          "type": "uint256"
        },
        {
          "indexed": false,
          "internalType": "string",
          "name": "productName",
          "type": "string"
        },
        {
          "indexed": false,
          "internalType": "address",
          "name": "initialOwnerWalletAddress",
          "type": "address"
        },
        {
          "indexed": false,
          "internalType": "address",
          "name": "ownerWalletAddress",
          "type": "address"
        },
        {
          "indexed": false,
          "internalType": "string",
          "name": "productImage",
          "type": "string"
        },
        {
          "indexed": false,
          "internalType": "string",
          "name": "startDate",
          "type": "string"
        },
        {
          "indexed": false,
          "internalType": "string",
          "name": "endDate",
          "type": "string"
        },
        {
          "indexed": false,
          "internalType": "bool",
          "name": "sold",
          "type": "bool"
        }
      ],
      "name": "ProductCreated",
      "type": "event"
    },
    {
      "inputs": [
        {
          "internalType": "uint256",
          "name": "",
          "type": "uint256"
        }
      ],
      "name": "allbids",
      "outputs": [
        {
          "internalType": "uint256",
          "name": "bidId",
          "type": "uint256"
        },
        {
          "internalType": "uint256",
          "name": "productId",
          "type": "uint256"
        },
        {
          "internalType": "uint256",
          "name": "amount",
          "type": "uint256"
        },
        {
          "internalType": "address payable",
          "name": "sellerAddress",
          "type": "address"
        },
        {
          "internalType": "address payable",
          "name": "bidderAddress",
          "type": "address"
        },
        {
          "internalType": "bool",
          "name": "returned",
          "type": "bool"
        }
      ],
      "stateMutability": "view",
      "type": "function"
    },
    {
      "inputs": [],
      "name": "bidsCount",
      "outputs": [
        {
          "internalType": "uint256",
          "name": "",
          "type": "uint256"
        }
      ],
      "stateMutability": "view",
      "type": "function"
    },
    {
      "inputs": [
        {
          "internalType": "uint256",
          "name": "",
          "type": "uint256"
        }
      ],
      "name": "maxBidId",
      "outputs": [
        {
          "internalType": "uint256",
          "name": "bidId",
          "type": "uint256"
        },
        {
          "internalType": "uint256",
          "name": "productId",
          "type": "uint256"
        },
        {
          "internalType": "uint256",
          "name": "amount",
          "type": "uint256"
        },
        {
          "internalType": "address payable",
          "name": "sellerAddress",
          "type": "address"
        },
        {
          "internalType": "address payable",
          "name": "bidderAddress",
          "type": "address"
        },
        {
          "internalType": "bool",
          "name": "returned",
          "type": "bool"
        }
      ],
      "stateMutability": "view",
      "type": "function"
    },
    {
      "inputs": [
        {
          "internalType": "uint256",
          "name": "",
          "type": "uint256"
        }
      ],
      "name": "productDetails",
      "outputs": [
        {
          "internalType": "uint256",
          "name": "productId",
          "type": "uint256"
        },
        {
          "internalType": "string",
          "name": "ownerContact",
          "type": "string"
        },
        {
          "internalType": "string",
          "name": "initialOwnerContact",
          "type": "string"
        },
        {
          "internalType": "string",
          "name": "ownerName",
          "type": "string"
        },
        {
          "internalType": "string",
          "name": "initialOwnerName",
          "type": "string"
        },
        {
          "internalType": "string",
          "name": "category",
          "type": "string"
        },
        {
          "internalType": "string",
          "name": "description",
          "type": "string"
        },
        {
          "internalType": "string",
          "name": "shortDescription",
          "type": "string"
        }
      ],
      "stateMutability": "view",
      "type": "function"
    },
    {
      "inputs": [
        {
          "internalType": "uint256",
          "name": "",
          "type": "uint256"
        }
      ],
      "name": "products",
      "outputs": [
        {
          "internalType": "uint256",
          "name": "id",
          "type": "uint256"
        },
        {
          "internalType": "uint256",
          "name": "initialPrice",
          "type": "uint256"
        },
        {
          "internalType": "uint256",
          "name": "currentPrice",
          "type": "uint256"
        },
        {
          "internalType": "string",
          "name": "productName",
          "type": "string"
        },
        {
          "internalType": "address payable",
          "name": "initialOwnerWalletAddress",
          "type": "address"
        },
        {
          "internalType": "address payable",
          "name": "ownerWalletAddress",
          "type": "address"
        },
        {
          "internalType": "string",
          "name": "productImage",
          "type": "string"
        },
        {
          "internalType": "string",
          "name": "startDate",
          "type": "string"
        },
        {
          "internalType": "string",
          "name": "endDate",
          "type": "string"
        },
        {
          "internalType": "bool",
          "name": "sold",
          "type": "bool"
        },
        {
          "internalType": "uint256",
          "name": "bidsCount",
          "type": "uint256"
        }
      ],
      "stateMutability": "view",
      "type": "function"
    },
    {
      "inputs": [],
      "name": "productsCount",
      "outputs": [
        {
          "internalType": "uint256",
          "name": "",
          "type": "uint256"
        }
      ],
      "stateMutability": "view",
      "type": "function"
    },
    {
      "inputs": [
        {
          "internalType": "uint256",
          "name": "_initialSellPrice",
          "type": "uint256"
        },
        {
          "internalType": "string",
          "name": "_productName",
          "type": "string"
        },
        {
          "internalType": "string",
          "name": "_ownerName",
          "type": "string"
        },
        {
          "internalType": "string",
          "name": "_initialOwnerContact",
          "type": "string"
        },
        {
          "internalType": "string",
          "name": "_productImage",
          "type": "string"
        },
        {
          "internalType": "string",
          "name": "_startDate",
          "type": "string"
        },
        {
          "internalType": "string",
          "name": "_endDate",
          "type": "string"
        },
        {
          "internalType": "string",
          "name": "_category",
          "type": "string"
        },
        {
          "internalType": "string",
          "name": "_description",
          "type": "string"
        },
        {
          "internalType": "string",
          "name": "_shortDescription",
          "type": "string"
        }
      ],
      "name": "createProduct",
      "outputs": [],
      "stateMutability": "nonpayable",
      "type": "function"
    },
    {
      "inputs": [
        {
          "internalType": "uint256",
          "name": "_productId",
          "type": "uint256"
        },
        {
          "internalType": "uint256",
          "name": "_amount",
          "type": "uint256"
        },
        {
          "internalType": "string",
          "name": "_name",
          "type": "string"
        },
        {
          "internalType": "string",
          "name": "_contact",
          "type": "string"
        }
      ],
      "name": "bid",
      "outputs": [],
      "stateMutability": "payable",
      "type": "function"
    },
    {
      "inputs": [
        {
          "internalType": "uint256",
          "name": "_productId",
          "type": "uint256"
        }
      ],
      "name": "haltProductAuction",
      "outputs": [],
      "stateMutability": "payable",
      "type": "function"
    },
    {
      "inputs": [
        {
          "internalType": "uint256",
          "name": "_productId",
          "type": "uint256"
        }
      ],
      "name": "finishAuction",
      "outputs": [],
      "stateMutability": "payable",
      "type": "function"
    }
  ],
  "bytecode": "0x608060405260008055600060015534801561001957600080fd5b506138f9806100296000396000f3fe6080604052600436106100915760003560e01c8063a49ecae411610059578063a49ecae414610c42578063c04327a414610d10578063cf266ed014610dde578063e0df7bb614610e0c578063f9a7a3b514610e3757610091565b806332217ffe14610096578063368492d1146100c45780633fbffcef1461064f57806348f7eb301461067a5780637acc0b20146109bd575b600080fd5b6100c2600480360360208110156100ac57600080fd5b8101908080359060200190929190505050610f9d565b005b3480156100d057600080fd5b5061064d60048036036101408110156100e857600080fd5b81019080803590602001909291908035906020019064010000000081111561010f57600080fd5b82018360208201111561012157600080fd5b8035906020019184600183028401116401000000008311171561014357600080fd5b91908080601f016020809104026020016040519081016040528093929190818152602001838380828437600081840152601f19601f820116905080830192505050505050509192919290803590602001906401000000008111156101a657600080fd5b8201836020820111156101b857600080fd5b803590602001918460018302840111640100000000831117156101da57600080fd5b91908080601f016020809104026020016040519081016040528093929190818152602001838380828437600081840152601f19601f8201169050808301925050505050505091929192908035906020019064010000000081111561023d57600080fd5b82018360208201111561024f57600080fd5b8035906020019184600183028401116401000000008311171561027157600080fd5b91908080601f016020809104026020016040519081016040528093929190818152602001838380828437600081840152601f19601f820116905080830192505050505050509192919290803590602001906401000000008111156102d457600080fd5b8201836020820111156102e657600080fd5b8035906020019184600183028401116401000000008311171561030857600080fd5b91908080601f016020809104026020016040519081016040528093929190818152602001838380828437600081840152601f19601f8201169050808301925050505050505091929192908035906020019064010000000081111561036b57600080fd5b82018360208201111561037d57600080fd5b8035906020019184600183028401116401000000008311171561039f57600080fd5b91908080601f016020809104026020016040519081016040528093929190818152602001838380828437600081840152601f19601f8201169050808301925050505050505091929192908035906020019064010000000081111561040257600080fd5b82018360208201111561041457600080fd5b8035906020019184600183028401116401000000008311171561043657600080fd5b91908080601f016020809104026020016040519081016040528093929190818152602001838380828437600081840152601f19601f8201169050808301925050505050505091929192908035906020019064010000000081111561049957600080fd5b8201836020820111156104ab57600080fd5b803590602001918460018302840111640100000000831117156104cd57600080fd5b91908080601f016020809104026020016040519081016040528093929190818152602001838380828437600081840152601f19601f8201169050808301925050505050505091929192908035906020019064010000000081111561053057600080fd5b82018360208201111561054257600080fd5b8035906020019184600183028401116401000000008311171561056457600080fd5b91908080601f016020809104026020016040519081016040528093929190818152602001838380828437600081840152601f19601f820116905080830192505050505050509192919290803590602001906401000000008111156105c757600080fd5b8201836020820111156105d957600080fd5b803590602001918460018302840111640100000000831117156105fb57600080fd5b91908080601f016020809104026020016040519081016040528093929190818152602001838380828437600081840152601f19601f8201169050808301925050505050505091929192905050506114b7565b005b34801561065b57600080fd5b50610664611a87565b6040518082815260200191505060405180910390f35b34801561068657600080fd5b506106b36004803603602081101561069d57600080fd5b8101908080359060200190929190505050611a8d565b604051808981526020018060200180602001806020018060200180602001806020018060200188810388528f818151815260200191508051906020019080838360005b838110156107115780820151818401526020810190506106f6565b50505050905090810190601f16801561073e5780820380516001836020036101000a031916815260200191505b5088810387528e818151815260200191508051906020019080838360005b8381101561077757808201518184015260208101905061075c565b50505050905090810190601f1680156107a45780820380516001836020036101000a031916815260200191505b5088810386528d818151815260200191508051906020019080838360005b838110156107dd5780820151818401526020810190506107c2565b50505050905090810190601f16801561080a5780820380516001836020036101000a031916815260200191505b5088810385528c818151815260200191508051906020019080838360005b83811015610843578082015181840152602081019050610828565b50505050905090810190601f1680156108705780820380516001836020036101000a031916815260200191505b5088810384528b818151815260200191508051906020019080838360005b838110156108a957808201518184015260208101905061088e565b50505050905090810190601f1680156108d65780820380516001836020036101000a031916815260200191505b5088810383528a818151815260200191508051906020019080838360005b8381101561090f5780820151818401526020810190506108f4565b50505050905090810190601f16801561093c5780820380516001836020036101000a031916815260200191505b50888103825289818151815260200191508051906020019080838360005b8381101561097557808201518184015260208101905061095a565b50505050905090810190601f1680156109a25780820380516001836020036101000a031916815260200191505b509f5050505050505050505050505050505060405180910390f35b3480156109c957600080fd5b506109f6600480360360208110156109e057600080fd5b8101908080359060200190929190505050611efd565b604051808c81526020018b81526020018a8152602001806020018973ffffffffffffffffffffffffffffffffffffffff1673ffffffffffffffffffffffffffffffffffffffff1681526020018873ffffffffffffffffffffffffffffffffffffffff1673ffffffffffffffffffffffffffffffffffffffff1681526020018060200180602001806020018715151515815260200186815260200185810385528d818151815260200191508051906020019080838360005b83811015610ac8578082015181840152602081019050610aad565b50505050905090810190601f168015610af55780820380516001836020036101000a031916815260200191505b5085810384528a818151815260200191508051906020019080838360005b83811015610b2e578082015181840152602081019050610b13565b50505050905090810190601f168015610b5b5780820380516001836020036101000a031916815260200191505b50858103835289818151815260200191508051906020019080838360005b83811015610b94578082015181840152602081019050610b79565b50505050905090810190601f168015610bc15780820380516001836020036101000a031916815260200191505b50858103825288818151815260200191508051906020019080838360005b83811015610bfa578082015181840152602081019050610bdf565b50505050905090810190601f168015610c275780820380516001836020036101000a031916815260200191505b509f5050505050505050505050505050505060405180910390f35b348015610c4e57600080fd5b50610c7b60048036036020811015610c6557600080fd5b8101908080359060200190929190505050612204565b604051808781526020018681526020018581526020018473ffffffffffffffffffffffffffffffffffffffff1673ffffffffffffffffffffffffffffffffffffffff1681526020018373ffffffffffffffffffffffffffffffffffffffff1673ffffffffffffffffffffffffffffffffffffffff16815260200182151515158152602001965050505050505060405180910390f35b348015610d1c57600080fd5b50610d4960048036036020811015610d3357600080fd5b810190808035906020019092919050505061228d565b604051808781526020018681526020018581526020018473ffffffffffffffffffffffffffffffffffffffff1673ffffffffffffffffffffffffffffffffffffffff1681526020018373ffffffffffffffffffffffffffffffffffffffff1673ffffffffffffffffffffffffffffffffffffffff16815260200182151515158152602001965050505050505060405180910390f35b610e0a60048036036020811015610df457600080fd5b8101908080359060200190929190505050612316565b005b348015610e1857600080fd5b50610e2161279d565b6040518082815260200191505060405180910390f35b610f9b60048036036080811015610e4d57600080fd5b81019080803590602001909291908035906020019092919080359060200190640100000000811115610e7e57600080fd5b820183602082011115610e9057600080fd5b80359060200191846001830284011164010000000083111715610eb257600080fd5b91908080601f016020809104026020016040519081016040528093929190818152602001838380828437600081840152601f19601f82011690508083019250505050505050919291929080359060200190640100000000811115610f1557600080fd5b820183602082011115610f2757600080fd5b80359060200191846001830284011164010000000083111715610f4957600080fd5b91908080601f016020809104026020016040519081016040528093929190818152602001838380828437600081840152601f19601f8201169050808301925050505050505091929192905050506127a3565b005b610fa5613693565b6002600083815260200190815260200160002060405180610160016040529081600082015481526020016001820154815260200160028201548152602001600382018054600181600116156101000203166002900480601f01602080910402602001604051908101604052809291908181526020018280546001816001161561010002031660029004801561107b5780601f106110505761010080835404028352916020019161107b565b820191906000526020600020905b81548152906001019060200180831161105e57829003601f168201915b505050505081526020016004820160009054906101000a900473ffffffffffffffffffffffffffffffffffffffff1673ffffffffffffffffffffffffffffffffffffffff1673ffffffffffffffffffffffffffffffffffffffff1681526020016005820160009054906101000a900473ffffffffffffffffffffffffffffffffffffffff1673ffffffffffffffffffffffffffffffffffffffff1673ffffffffffffffffffffffffffffffffffffffff168152602001600682018054600181600116156101000203166002900480601f0160208091040260200160405190810160405280929190818152602001828054600181600116156101000203166002900480156111c95780601f1061119e576101008083540402835291602001916111c9565b820191906000526020600020905b8154815290600101906020018083116111ac57829003601f168201915b50505050508152602001600782018054600181600116156101000203166002900480601f01602080910402602001604051908101604052809291908181526020018280546001816001161561010002031660029004801561126b5780601f106112405761010080835404028352916020019161126b565b820191906000526020600020905b81548152906001019060200180831161124e57829003601f168201915b50505050508152602001600882018054600181600116156101000203166002900480601f01602080910402602001604051908101604052809291908181526020018280546001816001161561010002031660029004801561130d5780601f106112e25761010080835404028352916020019161130d565b820191906000526020600020905b8154815290600101906020018083116112f057829003601f168201915b505050505081526020016009820160009054906101000a900460ff16151515158152602001600a8201548152505090506001816101200190151590811515815250508060026000848152602001908152602001600020600082015181600001556020820151816001015560408201518160020155606082015181600301908051906020019061139d92919061371b565b5060808201518160040160006101000a81548173ffffffffffffffffffffffffffffffffffffffff021916908373ffffffffffffffffffffffffffffffffffffffff16021790555060a08201518160050160006101000a81548173ffffffffffffffffffffffffffffffffffffffff021916908373ffffffffffffffffffffffffffffffffffffffff16021790555060c082015181600601908051906020019061144892919061371b565b5060e082015181600701908051906020019061146592919061371b565b5061010082015181600801908051906020019061148392919061371b565b506101208201518160090160006101000a81548160ff02191690831515021790555061014082015181600a01559050505050565b60008951116114c557600080fd5b60008a116114d257600080fd5b60008551116114e057600080fd5b60008451116114ee57600080fd5b600080815480929190600101919050555060405180610160016040528060005481526020018b81526020018b81526020018a81526020013373ffffffffffffffffffffffffffffffffffffffff1681526020013373ffffffffffffffffffffffffffffffffffffffff1681526020018781526020018681526020018581526020016000151581526020016000815250600260008054815260200190815260200160002060008201518160000155602082015181600101556040820151816002015560608201518160030190805190602001906115cb92919061371b565b5060808201518160040160006101000a81548173ffffffffffffffffffffffffffffffffffffffff021916908373ffffffffffffffffffffffffffffffffffffffff16021790555060a08201518160050160006101000a81548173ffffffffffffffffffffffffffffffffffffffff021916908373ffffffffffffffffffffffffffffffffffffffff16021790555060c082015181600601908051906020019061167692919061371b565b5060e082015181600701908051906020019061169392919061371b565b506101008201518160080190805190602001906116b192919061371b565b506101208201518160090160006101000a81548160ff02191690831515021790555061014082015181600a0155905050604051806101000160405280600054815260200188815260200188815260200189815260200189815260200184815260200183815260200182815250600460008054815260200190815260200160002060008201518160000155602082015181600101908051906020019061175792919061371b565b50604082015181600201908051906020019061177492919061371b565b50606082015181600301908051906020019061179192919061371b565b5060808201518160040190805190602001906117ae92919061371b565b5060a08201518160050190805190602001906117cb92919061371b565b5060c08201518160060190805190602001906117e892919061371b565b5060e082015181600701908051906020019061180592919061371b565b509050507fa94f3285921a476e409a8b99eba857f64c25113599524df5deb07d641108b8a16000548b8c8c33338c8c8c6000604051808b81526020018a8152602001898152602001806020018873ffffffffffffffffffffffffffffffffffffffff1673ffffffffffffffffffffffffffffffffffffffff1681526020018773ffffffffffffffffffffffffffffffffffffffff1673ffffffffffffffffffffffffffffffffffffffff1681526020018060200180602001806020018615151515815260200185810385528c818151815260200191508051906020019080838360005b838110156119035780820151818401526020810190506118e8565b50505050905090810190601f1680156119305780820380516001836020036101000a031916815260200191505b50858103845289818151815260200191508051906020019080838360005b8381101561196957808201518184015260208101905061194e565b50505050905090810190601f1680156119965780820380516001836020036101000a031916815260200191505b50858103835288818151815260200191508051906020019080838360005b838110156119cf5780820151818401526020810190506119b4565b50505050905090810190601f1680156119fc5780820380516001836020036101000a031916815260200191505b50858103825287818151815260200191508051906020019080838360005b83811015611a35578082015181840152602081019050611a1a565b50505050905090810190601f168015611a625780820380516001836020036101000a031916815260200191505b509e50505050505050505050505050505060405180910390a150505050505050505050565b60015481565b6004602052806000526040600020600091509050806000015490806001018054600181600116156101000203166002900480601f016020809104026020016040519081016040528092919081815260200182805460018160011615610100020316600290048015611b3f5780601f10611b1457610100808354040283529160200191611b3f565b820191906000526020600020905b815481529060010190602001808311611b2257829003601f168201915b505050505090806002018054600181600116156101000203166002900480601f016020809104026020016040519081016040528092919081815260200182805460018160011615610100020316600290048015611bdd5780601f10611bb257610100808354040283529160200191611bdd565b820191906000526020600020905b815481529060010190602001808311611bc057829003601f168201915b505050505090806003018054600181600116156101000203166002900480601f016020809104026020016040519081016040528092919081815260200182805460018160011615610100020316600290048015611c7b5780601f10611c5057610100808354040283529160200191611c7b565b820191906000526020600020905b815481529060010190602001808311611c5e57829003601f168201915b505050505090806004018054600181600116156101000203166002900480601f016020809104026020016040519081016040528092919081815260200182805460018160011615610100020316600290048015611d195780601f10611cee57610100808354040283529160200191611d19565b820191906000526020600020905b815481529060010190602001808311611cfc57829003601f168201915b505050505090806005018054600181600116156101000203166002900480601f016020809104026020016040519081016040528092919081815260200182805460018160011615610100020316600290048015611db75780601f10611d8c57610100808354040283529160200191611db7565b820191906000526020600020905b815481529060010190602001808311611d9a57829003601f168201915b505050505090806006018054600181600116156101000203166002900480601f016020809104026020016040519081016040528092919081815260200182805460018160011615610100020316600290048015611e555780601f10611e2a57610100808354040283529160200191611e55565b820191906000526020600020905b815481529060010190602001808311611e3857829003601f168201915b505050505090806007018054600181600116156101000203166002900480601f016020809104026020016040519081016040528092919081815260200182805460018160011615610100020316600290048015611ef35780601f10611ec857610100808354040283529160200191611ef3565b820191906000526020600020905b815481529060010190602001808311611ed657829003601f168201915b5050505050905088565b6002602052806000526040600020600091509050806000015490806001015490806002015490806003018054600181600116156101000203166002900480601f016020809104026020016040519081016040528092919081815260200182805460018160011615610100020316600290048015611fbb5780601f10611f9057610100808354040283529160200191611fbb565b820191906000526020600020905b815481529060010190602001808311611f9e57829003601f168201915b5050505050908060040160009054906101000a900473ffffffffffffffffffffffffffffffffffffffff16908060050160009054906101000a900473ffffffffffffffffffffffffffffffffffffffff1690806006018054600181600116156101000203166002900480601f0160208091040260200160405190810160405280929190818152602001828054600181600116156101000203166002900480156120a55780601f1061207a576101008083540402835291602001916120a5565b820191906000526020600020905b81548152906001019060200180831161208857829003601f168201915b505050505090806007018054600181600116156101000203166002900480601f0160208091040260200160405190810160405280929190818152602001828054600181600116156101000203166002900480156121435780601f1061211857610100808354040283529160200191612143565b820191906000526020600020905b81548152906001019060200180831161212657829003601f168201915b505050505090806008018054600181600116156101000203166002900480601f0160208091040260200160405190810160405280929190818152602001828054600181600116156101000203166002900480156121e15780601f106121b6576101008083540402835291602001916121e1565b820191906000526020600020905b8154815290600101906020018083116121c457829003601f168201915b5050505050908060090160009054906101000a900460ff169080600a015490508b565b60036020528060005260406000206000915090508060000154908060010154908060020154908060030160009054906101000a900473ffffffffffffffffffffffffffffffffffffffff16908060040160009054906101000a900473ffffffffffffffffffffffffffffffffffffffff16908060040160149054906101000a900460ff16905086565b60056020528060005260406000206000915090508060000154908060010154908060020154908060030160009054906101000a900473ffffffffffffffffffffffffffffffffffffffff16908060040160009054906101000a900473ffffffffffffffffffffffffffffffffffffffff16908060040160149054906101000a900460ff16905086565b61231e613693565b6002600083815260200190815260200160002060405180610160016040529081600082015481526020016001820154815260200160028201548152602001600382018054600181600116156101000203166002900480601f0160208091040260200160405190810160405280929190818152602001828054600181600116156101000203166002900480156123f45780601f106123c9576101008083540402835291602001916123f4565b820191906000526020600020905b8154815290600101906020018083116123d757829003601f168201915b505050505081526020016004820160009054906101000a900473ffffffffffffffffffffffffffffffffffffffff1673ffffffffffffffffffffffffffffffffffffffff1673ffffffffffffffffffffffffffffffffffffffff1681526020016005820160009054906101000a900473ffffffffffffffffffffffffffffffffffffffff1673ffffffffffffffffffffffffffffffffffffffff1673ffffffffffffffffffffffffffffffffffffffff168152602001600682018054600181600116156101000203166002900480601f0160208091040260200160405190810160405280929190818152602001828054600181600116156101000203166002900480156125425780601f1061251757610100808354040283529160200191612542565b820191906000526020600020905b81548152906001019060200180831161252557829003601f168201915b50505050508152602001600782018054600181600116156101000203166002900480601f0160208091040260200160405190810160405280929190818152602001828054600181600116156101000203166002900480156125e45780601f106125b9576101008083540402835291602001916125e4565b820191906000526020600020905b8154815290600101906020018083116125c757829003601f168201915b50505050508152602001600882018054600181600116156101000203166002900480601f0160208091040260200160405190810160405280929190818152602001828054600181600116156101000203166002900480156126865780601f1061265b57610100808354040283529160200191612686565b820191906000526020600020905b81548152906001019060200180831161266957829003601f168201915b505050505081526020016009820160009054906101000a900460ff16151515158152602001600a8201548152505090508060a0015173ffffffffffffffffffffffffffffffffffffffff163373ffffffffffffffffffffffffffffffffffffffff161461273e576040517f08c379a000000000000000000000000000000000000000000000000000000000815260040180806020018281038252602a815260200180613846602a913960400191505060405180910390fd5b6000816080015190506000826040015190508173ffffffffffffffffffffffffffffffffffffffff166108fc829081150290604051600060405180830381858888f19350505050158015612796573d6000803e3d6000fd5b5050505050565b60005481565b6127ab613693565b6002600086815260200190815260200160002060405180610160016040529081600082015481526020016001820154815260200160028201548152602001600382018054600181600116156101000203166002900480601f0160208091040260200160405190810160405280929190818152602001828054600181600116156101000203166002900480156128815780601f1061285657610100808354040283529160200191612881565b820191906000526020600020905b81548152906001019060200180831161286457829003601f168201915b505050505081526020016004820160009054906101000a900473ffffffffffffffffffffffffffffffffffffffff1673ffffffffffffffffffffffffffffffffffffffff1673ffffffffffffffffffffffffffffffffffffffff1681526020016005820160009054906101000a900473ffffffffffffffffffffffffffffffffffffffff1673ffffffffffffffffffffffffffffffffffffffff1673ffffffffffffffffffffffffffffffffffffffff168152602001600682018054600181600116156101000203166002900480601f0160208091040260200160405190810160405280929190818152602001828054600181600116156101000203166002900480156129cf5780601f106129a4576101008083540402835291602001916129cf565b820191906000526020600020905b8154815290600101906020018083116129b257829003601f168201915b50505050508152602001600782018054600181600116156101000203166002900480601f016020809104026020016040519081016040528092919081815260200182805460018160011615610100020316600290048015612a715780601f10612a4657610100808354040283529160200191612a71565b820191906000526020600020905b815481529060010190602001808311612a5457829003601f168201915b50505050508152602001600882018054600181600116156101000203166002900480601f016020809104026020016040519081016040528092919081815260200182805460018160011615610100020316600290048015612b135780601f10612ae857610100808354040283529160200191612b13565b820191906000526020600020905b815481529060010190602001808311612af657829003601f168201915b505050505081526020016009820160009054906101000a900460ff16151515158152602001600a820154815250509050612b4b61379b565b600460008781526020019081526020016000206040518061010001604052908160008201548152602001600182018054600181600116156101000203166002900480601f016020809104026020016040519081016040528092919081815260200182805460018160011615610100020316600290048015612c0d5780601f10612be257610100808354040283529160200191612c0d565b820191906000526020600020905b815481529060010190602001808311612bf057829003601f168201915b50505050508152602001600282018054600181600116156101000203166002900480601f016020809104026020016040519081016040528092919081815260200182805460018160011615610100020316600290048015612caf5780601f10612c8457610100808354040283529160200191612caf565b820191906000526020600020905b815481529060010190602001808311612c9257829003601f168201915b50505050508152602001600382018054600181600116156101000203166002900480601f016020809104026020016040519081016040528092919081815260200182805460018160011615610100020316600290048015612d515780601f10612d2657610100808354040283529160200191612d51565b820191906000526020600020905b815481529060010190602001808311612d3457829003601f168201915b50505050508152602001600482018054600181600116156101000203166002900480601f016020809104026020016040519081016040528092919081815260200182805460018160011615610100020316600290048015612df35780601f10612dc857610100808354040283529160200191612df3565b820191906000526020600020905b815481529060010190602001808311612dd657829003601f168201915b50505050508152602001600582018054600181600116156101000203166002900480601f016020809104026020016040519081016040528092919081815260200182805460018160011615610100020316600290048015612e955780601f10612e6a57610100808354040283529160200191612e95565b820191906000526020600020905b815481529060010190602001808311612e7857829003601f168201915b50505050508152602001600682018054600181600116156101000203166002900480601f016020809104026020016040519081016040528092919081815260200182805460018160011615610100020316600290048015612f375780601f10612f0c57610100808354040283529160200191612f37565b820191906000526020600020905b815481529060010190602001808311612f1a57829003601f168201915b50505050508152602001600782018054600181600116156101000203166002900480601f016020809104026020016040519081016040528092919081815260200182805460018160011615610100020316600290048015612fd95780601f10612fae57610100808354040283529160200191612fd9565b820191906000526020600020905b815481529060010190602001808311612fbc57829003601f168201915b5050505050815250509050600082608001519050600083600001511180156130075750600054836000015111155b61305c576040517f08c379a000000000000000000000000000000000000000000000000000000000815260040180806020018281038252602c815260200180613898602c913960400191505060405180910390fd5b3373ffffffffffffffffffffffffffffffffffffffff168173ffffffffffffffffffffffffffffffffffffffff1614156130e1576040517f08c379a00000000000000000000000000000000000000000000000000000000081526004018080602001828103825260288152602001806138706028913960400191505060405180910390fd5b8260400151861161313d576040517f08c379a00000000000000000000000000000000000000000000000000000000081526004018080602001828103825260408152602001806138066040913960400191505060405180910390fd5b6001600081548092919060010191905055506001548361014001818152505085836040018181525050338360a0019073ffffffffffffffffffffffffffffffffffffffff16908173ffffffffffffffffffffffffffffffffffffffff1681525050826002600089815260200190815260200160002060008201518160000155602082015181600101556040820151816002015560608201518160030190805190602001906131ec92919061371b565b5060808201518160040160006101000a81548173ffffffffffffffffffffffffffffffffffffffff021916908373ffffffffffffffffffffffffffffffffffffffff16021790555060a08201518160050160006101000a81548173ffffffffffffffffffffffffffffffffffffffff021916908373ffffffffffffffffffffffffffffffffffffffff16021790555060c082015181600601908051906020019061329792919061371b565b5060e08201518160070190805190602001906132b492919061371b565b506101008201518160080190805190602001906132d292919061371b565b506101208201518160090160006101000a81548160ff02191690831515021790555061014082015181600a0155905050838260200181905250848260600181905250816004600089815260200190815260200160002060008201518160000155602082015181600101908051906020019061334e92919061371b565b50604082015181600201908051906020019061336b92919061371b565b50606082015181600301908051906020019061338892919061371b565b5060808201518160040190805190602001906133a592919061371b565b5060a08201518160050190805190602001906133c292919061371b565b5060c08201518160060190805190602001906133df92919061371b565b5060e08201518160070190805190602001906133fc92919061371b565b509050506040518060c001604052806001548152602001888152602001878152602001846080015173ffffffffffffffffffffffffffffffffffffffff1681526020013373ffffffffffffffffffffffffffffffffffffffff1681526020016000151581525060056000600154815260200190815260200160002060008201518160000155602082015181600101556040820151816002015560608201518160030160006101000a81548173ffffffffffffffffffffffffffffffffffffffff021916908373ffffffffffffffffffffffffffffffffffffffff16021790555060808201518160040160006101000a81548173ffffffffffffffffffffffffffffffffffffffff021916908373ffffffffffffffffffffffffffffffffffffffff16021790555060a08201518160040160146101000a81548160ff0219169083151502179055509050506040518060c001604052806001548152602001888152602001878152602001846080015173ffffffffffffffffffffffffffffffffffffffff1681526020013373ffffffffffffffffffffffffffffffffffffffff168152602001600015158152506003600089815260200190815260200160002060008201518160000155602082015181600101556040820151816002015560608201518160030160006101000a81548173ffffffffffffffffffffffffffffffffffffffff021916908373ffffffffffffffffffffffffffffffffffffffff16021790555060808201518160040160006101000a81548173ffffffffffffffffffffffffffffffffffffffff021916908373ffffffffffffffffffffffffffffffffffffffff16021790555060a08201518160040160146101000a81548160ff02191690831515021790555090505050505050505050565b60405180610160016040528060008152602001600081526020016000815260200160608152602001600073ffffffffffffffffffffffffffffffffffffffff168152602001600073ffffffffffffffffffffffffffffffffffffffff168152602001606081526020016060815260200160608152602001600015158152602001600081525090565b828054600181600116156101000203166002900490600052602060002090601f016020900481019282601f1061375c57805160ff191683800117855561378a565b8280016001018555821561378a579182015b8281111561378957825182559160200191906001019061376e565b5b50905061379791906137e0565b5090565b60405180610100016040528060008152602001606081526020016060815260200160608152602001606081526020016060815260200160608152602001606081525090565b61380291905b808211156137fe5760008160009055506001016137e6565b5090565b9056fe43616e6e6f7420706c616365206269642c205468657265277320616e6f74686572206269642077697468206869676865722062696464696e6720616d6f756e74536f7272792074686973206164647265737320686173206e6f7420776f6e207468652061756374696f6e41756374696f6e6565722063616e6e6f7420626964206f6e20686973206f776e2070726f6475637450726f64756374496420736d616c6c6572207468656e2070726f6475637473436f756e74206f72207a65726fa264697066735822122030a5c8f32571afcfd183937a21eab29b2957eebda3eaaf4f648471a90ef9d86664736f6c63430006060033",
  "immutableReferences": {},
  "source": "pragma solidity >=0.6.0 <0.7.0;\n\ncontract Auction {\n    \n    uint public productsCount = 0;\n    uint public bidsCount = 0;\n    \n    \n    struct Product{\n        uint id;\n        uint256 initialPrice;\n        uint256 currentPrice;\n        string productName;\n        address payable initialOwnerWalletAddress;\n        address payable ownerWalletAddress;\n        string productImage;\n        string startDate;\n        string endDate;\n        bool sold;\n        uint bidsCount;\n    }\n    \n    struct ProductDetails{\n        uint productId;\n        string ownerContact;\n        string initialOwnerContact;\n        string ownerName;\n        string initialOwnerName;\n        string category;\n        string description;\n        string shortDescription;\n        //uint maxBidId;\n    }\n    \n    struct Bids{\n        uint bidId;\n        uint productId;\n        uint amount;\n        address payable sellerAddress;\n        address payable bidderAddress;\n        bool returned;\n    }\n    \n    event ProductCreated (\n        uint id,\n        uint256 initialSellPrice,\n        uint256 sellPrice,\n        string productName,\n        address initialOwnerWalletAddress,\n        address ownerWalletAddress,\n        string productImage,\n        string startDate,\n        string endDate,\n        bool sold\n    );\n    \n    //Bids[] productBids;\n    \n    mapping (uint => Product) public products;\n    mapping (uint => Bids) public maxBidId;\n    mapping (uint => ProductDetails) public productDetails;\n    mapping (uint => Bids) public allbids;\n    \n    \n    function createProduct(\n        uint256 _initialSellPrice, \n        string memory _productName, \n        string memory _ownerName,  \n        string memory _initialOwnerContact, \n        string memory _productImage, \n        string memory _startDate, \n        string memory _endDate, \n        string memory _category, \n        string memory _description,\n        string memory _shortDescription\n        ) public {\n        require(bytes(_productName).length > 0);\n        require(_initialSellPrice > 0);\n        require(bytes(_startDate).length > 0);\n        require(bytes(_endDate).length > 0);\n        \n        productsCount++;\n        products[productsCount] = Product(productsCount, _initialSellPrice, _initialSellPrice, _productName, msg.sender, msg.sender, _productImage, _startDate, _endDate, false, 0);\n        productDetails[productsCount] = ProductDetails(productsCount, _initialOwnerContact, _initialOwnerContact, _ownerName, _ownerName, _category, _description, _shortDescription);\n        \n        emit ProductCreated(productsCount, _initialSellPrice, _initialSellPrice, _productName, msg.sender, msg.sender, _productImage, _startDate, _endDate, false);\n        \n    }\n    \n    function bid (uint _productId, uint _amount, string memory _name, string memory _contact) public payable {\n        Product memory _product = products[_productId];\n        ProductDetails memory _productDetail = productDetails[_productId];\n        address payable _seller = _product.initialOwnerWalletAddress;\n        require(_product.id > 0 && _product.id <= productsCount, \"ProductId smaller then productsCount or zero\");\n        require(_seller != msg.sender, \"Auctioneer cannot bid on his own product\");\n        // Validation on frontend\n        require(_amount > _product.currentPrice, \"Cannot place bid, There's another bid with higher bidding amount\");\n        bidsCount++;\n        \n        _product.bidsCount = bidsCount;\n        _product.currentPrice = _amount;\n        _product.ownerWalletAddress = msg.sender;\n        products[_productId] = _product;\n        \n        _productDetail.ownerContact = _contact;\n        _productDetail.ownerName = _name;\n        productDetails[_productId] = _productDetail;\n        \n        allbids[bidsCount] = Bids(bidsCount, _productId, _amount, _product.initialOwnerWalletAddress, msg.sender, false);\n        maxBidId[_productId] = Bids(bidsCount, _productId, _amount, _product.initialOwnerWalletAddress, msg.sender, false);\n    }\n    \n    function haltProductAuction(uint _productId) public payable {\n        Product memory _product = products[_productId];\n        _product.sold = true;\n        products[_productId] = _product;\n    }\n    \n    function finishAuction(uint _productId) public payable {\n        Product memory _product = products[_productId];\n        require(msg.sender == _product.ownerWalletAddress, \"Sorry this address has not won the auction\");\n        address payable _seller = _product.initialOwnerWalletAddress;\n        uint amount = _product.currentPrice;\n        \n        _seller.transfer(amount);\n    }\n}",
  "sourcePath": "/Users/newsgate/Work/SmartAuction/src/contracts/auction.sol",
  "compiler": {
    "name": "solc",
    "version": "0.6.6+commit.6c089d02.Emscripten.clang"
  },
  "schemaVersion": "3.2.3",
  "updatedAt": "2020-11-21T16:35:39.612Z",
  "devdoc": {
    "methods": {}
  },
  "userdoc": {
    "methods": {}
  }
}